{
  "_format": "hh-sol-artifact-1",
  "contractName": "Todo",
  "sourceName": "contracts/Todo.sol",
  "abi": [
    {
      "inputs": [
        {
          "internalType": "string",
          "name": "_task",
          "type": "string"
        }
      ],
      "name": "addTodo",
      "outputs": [],
      "stateMutability": "nonpayable",
      "type": "function"
    },
    {
      "inputs": [
        {
          "internalType": "uint256",
          "name": "_id",
          "type": "uint256"
        }
      ],
      "name": "deleteTask",
      "outputs": [],
      "stateMutability": "nonpayable",
      "type": "function"
    },
    {
      "inputs": [
        {
          "internalType": "uint256",
          "name": "_id",
          "type": "uint256"
        },
        {
          "internalType": "string",
          "name": "text",
          "type": "string"
        }
      ],
      "name": "editTask",
      "outputs": [],
      "stateMutability": "nonpayable",
      "type": "function"
    },
    {
      "inputs": [],
      "name": "getPersonalTodos",
      "outputs": [
        {
          "components": [
            {
              "internalType": "string",
              "name": "title",
              "type": "string"
            },
            {
              "internalType": "bool",
              "name": "isCompleted",
              "type": "bool"
            },
            {
              "internalType": "bool",
              "name": "isDeleted",
              "type": "bool"
            }
          ],
          "internalType": "struct Todo.Task[]",
          "name": "_todosArray",
          "type": "tuple[]"
        }
      ],
      "stateMutability": "view",
      "type": "function"
    },
    {
      "inputs": [
        {
          "internalType": "uint256",
          "name": "_id",
          "type": "uint256"
        }
      ],
      "name": "markAsDone",
      "outputs": [],
      "stateMutability": "nonpayable",
      "type": "function"
    },
    {
      "inputs": [
        {
          "internalType": "address",
          "name": "",
          "type": "address"
        },
        {
          "internalType": "uint256",
          "name": "",
          "type": "uint256"
        }
      ],
      "name": "tasks",
      "outputs": [
        {
          "internalType": "string",
          "name": "title",
          "type": "string"
        },
        {
          "internalType": "bool",
          "name": "isCompleted",
          "type": "bool"
        },
        {
          "internalType": "bool",
          "name": "isDeleted",
          "type": "bool"
        }
      ],
      "stateMutability": "view",
      "type": "function"
    },
    {
      "inputs": [
        {
          "internalType": "uint256",
          "name": "",
          "type": "uint256"
        }
      ],
      "name": "todosArray",
      "outputs": [
        {
          "internalType": "string",
          "name": "title",
          "type": "string"
        },
        {
          "internalType": "bool",
          "name": "isCompleted",
          "type": "bool"
        },
        {
          "internalType": "bool",
          "name": "isDeleted",
          "type": "bool"
        }
      ],
      "stateMutability": "view",
      "type": "function"
    }
  ],
  "bytecode": "0x608060405234801561001057600080fd5b50611022806100206000396000f3fe608060405234801561001057600080fd5b506004361061007d5760003560e01c80637894d9dc1161005b5780637894d9dc146100ee57806395ffebf514610120578063cb7bd9951461013c578063d74de14d146101585761007d565b8063560f3192146100825780636a907ea91461009e5780637149d2e4146100bc575b600080fd5b61009c60048036038101906100979190610a22565b610174565b005b6100a66101f9565b6040516100b39190610c15565b60405180910390f35b6100d660048036038101906100d19190610c95565b610408565b6040516100e593929190610d2e565b60405180910390f35b61010860048036038101906101039190610a22565b6104e1565b60405161011793929190610d2e565b60405180910390f35b61013a60048036038101906101359190610dd1565b6105bd565b005b61015660048036038101906101519190610e1e565b61079b565b005b610172600480360381019061016d9190610a22565b610808565b005b60008060003373ffffffffffffffffffffffffffffffffffffffff1673ffffffffffffffffffffffffffffffffffffffff168152602001908152602001600020600083815260200190815260200160002090508060010160019054906101000a900460ff16158160010160016101000a81548160ff0219169083151502179055505050565b60606000600560003373ffffffffffffffffffffffffffffffffffffffff1673ffffffffffffffffffffffffffffffffffffffff16815260200190815260200160002060009054906101000a900460ff1660ff1690508067ffffffffffffffff81111561026957610268610e7e565b5b6040519080825280602002602001820160405280156102a257816020015b61028f61088d565b8152602001906001900390816102875790505b50915060005b81811015610403576000803373ffffffffffffffffffffffffffffffffffffffff1673ffffffffffffffffffffffffffffffffffffffff168152602001908152602001600020600082815260200190815260200160002060405180606001604052908160008201805461031a90610edc565b80601f016020809104026020016040519081016040528092919081815260200182805461034690610edc565b80156103935780601f1061036857610100808354040283529160200191610393565b820191906000526020600020905b81548152906001019060200180831161037657829003601f168201915b505050505081526020016001820160009054906101000a900460ff161515151581526020016001820160019054906101000a900460ff1615151515815250508382815181106103e5576103e4610f0e565b5b602002602001018190525080806103fb90610f6c565b9150506102a8565b505090565b60006020528160005260406000206020528060005260406000206000915091505080600001805461043890610edc565b80601f016020809104026020016040519081016040528092919081815260200182805461046490610edc565b80156104b15780601f10610486576101008083540402835291602001916104b1565b820191906000526020600020905b81548152906001019060200180831161049457829003601f168201915b5050505050908060010160009054906101000a900460ff16908060010160019054906101000a900460ff16905083565b600181815481106104f157600080fd5b906000526020600020906002020160009150905080600001805461051490610edc565b80601f016020809104026020016040519081016040528092919081815260200182805461054090610edc565b801561058d5780601f106105625761010080835404028352916020019161058d565b820191906000526020600020905b81548152906001019060200180831161057057829003601f168201915b5050505050908060010160009054906101000a900460ff16908060010160019054906101000a900460ff16905083565b6000600560003373ffffffffffffffffffffffffffffffffffffffff1673ffffffffffffffffffffffffffffffffffffffff16815260200190815260200160002060009054906101000a900460ff16905060008060003373ffffffffffffffffffffffffffffffffffffffff1673ffffffffffffffffffffffffffffffffffffffff16815260200190815260200160002060008360ff168152602001908152602001600020905083838260000191906106779291906108b2565b50600560003373ffffffffffffffffffffffffffffffffffffffff1673ffffffffffffffffffffffffffffffffffffffff168152602001908152602001600020600081819054906101000a900460ff16809291906106d490610fc2565b91906101000a81548160ff021916908360ff160217905550506001819080600181540180825580915050600190039060005260206000209060020201600090919091909150600082018160000190805461072d90610edc565b610738929190610938565b506001820160009054906101000a900460ff168160010160006101000a81548160ff0219169083151502179055506001820160019054906101000a900460ff168160010160016101000a81548160ff021916908315150217905550505050505050565b60008060003373ffffffffffffffffffffffffffffffffffffffff1673ffffffffffffffffffffffffffffffffffffffff1681526020019081526020016000206000858152602001908152602001600020905082828260000191906108019291906108b2565b5050505050565b60008060003373ffffffffffffffffffffffffffffffffffffffff1673ffffffffffffffffffffffffffffffffffffffff168152602001908152602001600020600083815260200190815260200160002090508060010160009054906101000a900460ff16158160010160006101000a81548160ff0219169083151502179055505050565b6040518060600160405280606081526020016000151581526020016000151581525090565b8280546108be90610edc565b90600052602060002090601f0160209004810192826108e05760008555610927565b82601f106108f957803560ff1916838001178555610927565b82800160010185558215610927579182015b8281111561092657823582559160200191906001019061090b565b5b50905061093491906109c5565b5090565b82805461094490610edc565b90600052602060002090601f01602090048101928261096657600085556109b4565b82601f1061097757805485556109b4565b828001600101855582156109b457600052602060002091601f016020900482015b828111156109b3578254825591600101919060010190610998565b5b5090506109c191906109c5565b5090565b5b808211156109de5760008160009055506001016109c6565b5090565b600080fd5b600080fd5b6000819050919050565b6109ff816109ec565b8114610a0a57600080fd5b50565b600081359050610a1c816109f6565b92915050565b600060208284031215610a3857610a376109e2565b5b6000610a4684828501610a0d565b91505092915050565b600081519050919050565b600082825260208201905092915050565b6000819050602082019050919050565b600081519050919050565b600082825260208201905092915050565b60005b83811015610ab5578082015181840152602081019050610a9a565b83811115610ac4576000848401525b50505050565b6000601f19601f8301169050919050565b6000610ae682610a7b565b610af08185610a86565b9350610b00818560208601610a97565b610b0981610aca565b840191505092915050565b60008115159050919050565b610b2981610b14565b82525050565b60006060830160008301518482036000860152610b4c8282610adb565b9150506020830151610b616020860182610b20565b506040830151610b746040860182610b20565b508091505092915050565b6000610b8b8383610b2f565b905092915050565b6000602082019050919050565b6000610bab82610a4f565b610bb58185610a5a565b935083602082028501610bc785610a6b565b8060005b85811015610c035784840389528151610be48582610b7f565b9450610bef83610b93565b925060208a01995050600181019050610bcb565b50829750879550505050505092915050565b60006020820190508181036000830152610c2f8184610ba0565b905092915050565b600073ffffffffffffffffffffffffffffffffffffffff82169050919050565b6000610c6282610c37565b9050919050565b610c7281610c57565b8114610c7d57600080fd5b50565b600081359050610c8f81610c69565b92915050565b60008060408385031215610cac57610cab6109e2565b5b6000610cba85828601610c80565b9250506020610ccb85828601610a0d565b9150509250929050565b600082825260208201905092915050565b6000610cf182610a7b565b610cfb8185610cd5565b9350610d0b818560208601610a97565b610d1481610aca565b840191505092915050565b610d2881610b14565b82525050565b60006060820190508181036000830152610d488186610ce6565b9050610d576020830185610d1f565b610d646040830184610d1f565b949350505050565b600080fd5b600080fd5b600080fd5b60008083601f840112610d9157610d90610d6c565b5b8235905067ffffffffffffffff811115610dae57610dad610d71565b5b602083019150836001820283011115610dca57610dc9610d76565b5b9250929050565b60008060208385031215610de857610de76109e2565b5b600083013567ffffffffffffffff811115610e0657610e056109e7565b5b610e1285828601610d7b565b92509250509250929050565b600080600060408486031215610e3757610e366109e2565b5b6000610e4586828701610a0d565b935050602084013567ffffffffffffffff811115610e6657610e656109e7565b5b610e7286828701610d7b565b92509250509250925092565b7f4e487b7100000000000000000000000000000000000000000000000000000000600052604160045260246000fd5b7f4e487b7100000000000000000000000000000000000000000000000000000000600052602260045260246000fd5b60006002820490506001821680610ef457607f821691505b60208210811415610f0857610f07610ead565b5b50919050565b7f4e487b7100000000000000000000000000000000000000000000000000000000600052603260045260246000fd5b7f4e487b7100000000000000000000000000000000000000000000000000000000600052601160045260246000fd5b6000610f77826109ec565b91507fffffffffffffffffffffffffffffffffffffffffffffffffffffffffffffffff821415610faa57610fa9610f3d565b5b600182019050919050565b600060ff82169050919050565b6000610fcd82610fb5565b915060ff821415610fe157610fe0610f3d565b5b60018201905091905056fea264697066735822122033bccd5395c328968335ef281d391638c1cbc30413ee4f83764e56e4c61302b064736f6c63430008090033",
  "linkReferences": {},
  "deployedLinkReferences": {}
}